:020000041000EA
:1000000000B5324B212058609868022188439860DF
:10001000D860186158612E4B002199600221596106
:100020000121F02299502B49196001219960352056
:1000300000F044F80222904214D00621196600F024
:1000400034F8196E01211966002018661A6600F04E
:100050002CF8196E196E196E052000F02FF8012189
:100060000842F9D1002199601B49196000215960AB
:100070001A491B48016001219960EB211966A021F2
:10008000196600F012F800219960164914480160C1
:100090000121996001BC002800D000471248134993
:1000A000086003C880F30888084703B5996A0420EC
:1000B0000142FBD001200142F8D103BD02B5186610
:1000C0001866FFF7F2FF186E186E02BD00000240BE
:1000D000000000180000070000035F00212200005C
:1000E000F4000018222000A00001001008ED00E03C
:1000F00000000000000000000000000074B24E7A12
:1001000000200420F7010010CB010010CD010010E9
:10011000C9010010C9010010C9010010C901001077
:10012000C9010010C9010010C9010010CF01001061
:10013000C9010010C9010010D1010010D301001045
:10014000C1010010C1010010C1010010C101001067
:10015000C1010010C1010010C1010010C101001057
:10016000C1010010C1010010C1010010C101001047
:10017000C1010010C1010010C1010010C101001037
:10018000C1010010C1010010C1010010C101001027
:10019000C1010010C1010010C1010010C101001017
:1001A000C1010010C1010010C1010010C101001007
:1001B000C1010010C1010010C1010010C1010010F7
:1001C000EFF30580103800BE00BE00BE00BE00BECA
:1001D00000BE00BEF2EB8871C43F0010E03F00108B
:1001E0003802001090A31AE71E481F49086006C88D
:1001F00081F3088810471D480068002801D019487D
:10020000F3E70DA40ECC002902D000F012F8F9E7B4
:100210001749184A002000E001C19142FCD116495B
:100220008847164988471649884700BEFDE701C937
:1002300001C29A42FBD37047E03F0010C00000208B
:100240006C0200208C4100100000042000000420FB
:100250008C41001000100420001004200000000059
:10026000704700000000000008ED00E0000000D032
:100270006C020020F0070020CD3200102103001096
:100280008D320010F8B5C0460448054B10B58342C6
:1002900003D0044B002B00D0984710BD6C02002007
:1002A0006C0200200000000006480749091A8B1064
:1002B000C90FC91810B5491003D0044B002B00D04A
:1002C000984710BD6C0200206C0200200000000066
:1002D00010B5074C2378002B09D1FFF7D5FF054B4C
:1002E000002B02D0044800E000BF0123237010BDA2
:1002F000F004002000000000E4370010054B10B5AA
:10030000002B03D00449054800E000BFFFF7CCFFF5
:1003100010BDC04600000000F4040020E4370010C7
:100320001F2110B5174B82B01A6801248A431A6046
:100330001A681A390A431A600122002012490B6810
:1003400013430B6011490B681343114A0B600B6890
:1003500023430B600090009B934205DC009B01331C
:100360000093009B9342F9DD0B68A3430B6001905F
:10037000019B9342EBDC019B01330193019B934270
:10038000F9DDE4E704400140200000D0100000D077
:100390001FA107000FB400B5084883B003F0B0F800
:1003A000049B002B07D005A91800019103F0C2F8A7
:1003B000034803F0A5F8012002F066FFE8370010BB
:1003C000F837001070B58C461600EFF3108472B643
:1003D0000F490B68002BFCD0BFF35F8F6346DB082F
:1003E000C5180722C05C63461A40012393401A00D7
:1003F0000240034207D118432870BFF35F8F0A60A1
:1004000084F3108870BD61463000FFF7C3FFC0461B
:100410002C0100D0044A1078431CDBB2172B00D902
:10042000102313707047C046180200200021044BAF
:10043000044ABFF35F8F02C39342FAD17047C046AC
:10044000000100D0800100D0044B054805491A0086
:10045000043310608B42FAD17047C04600E400E0DC
:100460008080808020E400E01F2318401E3B8340F2
:10047000002905D0C021044A490053501360704739
:10048000802201498B50FAE700E100E010B5EFF35C
:10049000108C72B6114A1368002BFCD0BFF35F8F2B
:1004A0000F4B10309B6880001B580E4A934201D0BE
:1004B00099420CD10A4B9B681950BFF35F8FBFF371
:1004C0005F8F0022054B1A608CF3108810BDED2160
:1004D000054B064A064802F0DDFEC046240100D066
:1004E00000ED00E0C10100105C380010C83C0010B5
:1004F00014380010024BC918890001607047C046CB
:100500004000003470B5154C154DAC421ED2FF268C
:100510000DE0012B1BD1FFF77DFF01002000FFF74D
:10052000E9FFA680BFF35F8F0834AC420ED2236888
:10053000002BEED1FFF76EFF01002000FFF7DAFF7E
:100540002671BFF35F8F0834AC42F0D370BD1A211F
:10055000044B054A054802F09DFEC0466402002097
:100560006C02002094380010083D0010B4380010D0
:100570000A4B1968EFF3108072B60A68002AFCD0A3
:10058000BFF35F8F1B68BFF35F8F00221A6080F399
:10059000108840BF002000217047C046EC070020B3
:1005A000652110B5024B034A034802F073FEC046B2
:1005B0004C3900101C3D001070390010F0B5DE46BB
:1005C00057464E464546E0B587B0EFF30583032214
:1005D0001A40B84B91005B58049298461B780391DF
:1005E000934200D060E10123049A47469340994624
:1005F0004A46B14B1A60B14B05934B46B048436332
:100600000823FE5E002E38DABB881BB2002B00DB0D
:10061000A5E0BB79002B00D0E6E00823F95E0029B5
:1006200021DB4B007A695B18DB00D3189D68DC681E
:100630006B1C01D1631C0ED0A1480399826A091872
:100640000B69AE1A9B1A9E4215D30123026A0498C5
:1006500083401A420FD09A4800F0BAFA8C4202DC6A
:10066000CBD18542C9D940BF07B0F0BCBB46B2462A
:10067000A946A046F0BD0D61EDE77A697300934687
:100680009B19DB009B445B469C68DD6800F0A0FA88
:100690008D42B9DC00D1F2E0002D00DAD7E05A46F5
:1006A0005B4652691B699046059A934200D1C8E0A7
:1006B0005A460821785E5288000441461043984704
:1006C000009001910099019A0B00134300D1BEE004
:1006D00013000A00002B00DBD5E020002900801A5F
:1006E00099415B469860D96000229B5E002B00DA3E
:1006F0008AE77A695D009246EA18D200524494680B
:10070000D268A4468A4200DD7EE702D1844200D945
:100710007AE70824A0463B81B8445446BA462F00E5
:100720004546B0463E0006E05E00F218D200A21830
:100730009768D268BC468A4207DC00D1B0E0F31863
:10074000DB00E518E35E002BEEDA46465A465746D4
:1007500013802E80BB881BB2002B00DA59E73A6960
:10076000EFF3108172B61368002BFCD0BFF35F8FDC
:100770000123BE885B42BB8036B23B69BFF35F8F0B
:1007800000221A6081F31088002E00DA41E73B0056
:1007900008333A0098467D6973009B190824115F5D
:1007A000DB004046EB18002913DB9C689B46A446FF
:1007B000DC6806E0A34240D00023F95E380000293F
:1007C00006DB4F007F18FF00EF19FB68A342F1DD45
:1007D0005B46068000201E5E1980002EDCDA1700C2
:1007E000BB79002B00D118E70023BB710823F95E09
:1007F0004B1C00D137E73D000835AC467C6903E06F
:1008000084464B1C00D108E74B005B18DB00E01866
:100810000A00E15E43881BB2002BF1DA01256D422C
:10082000EE178560C66008257B5F9342E9D063467A
:1008300019803B8903803A81E3E7BB686345BBD9F4
:10084000C6E7434640461B699847002823D15B46CC
:100850001B883A693B81EFF3108372B61168002957
:10086000FCD0BFF35F8F59467A880A803A697E8050
:10087000BFF35F8F0021116083F31088C4E68442C8
:1008800000D809E7C0E60E4800F0A2F9009B019CE1
:10089000C018614125E743460CCB0092019311E754
:1008A000844500D84BE750E79221064B064A07489B
:1008B00002F0F0FCD80600203C700540BD05001099
:1008C00000400540B4390010343D0010703900106C
:1008D00010B51D4C2369002B04D00A211B48FFF7DB
:1008E00009FE10BD03211A4800F068F9184BE360B7
:1008F000FFF790FD174B6269C01803232370D023C4
:100900001B061B6880006370134B2061A3600123EA
:100910005B42A38010336380104B138001339BB282
:1009200018320F2BF9D10E4B0320DC600824084B42
:100930000C491C62FFF7AAFD01210320FFF794FD7B
:10094000094B1C60C9E7C0461C020020EC070020D0
:100950000040054040000034FFFF1000FFFF000092
:10096000D8060020BD0500103860054070B582B083
:100970000092019301000269EFF3108472B61368CC
:10098000002BFCD0BFF35F8F0223C85E0D690028E7
:100990003FDB4A69430016001B18DB00D218F35AEC
:1009A0004B80BFF35F8F00232B6084F31088069B7E
:1009B0001361079B5361009B019C9360D460538833
:1009C00001335B045B0C1D1C002B20D0ACB2030474
:1009D000558023430D69EFF3108C72B62C68002C00
:1009E000FCD0BFF35F8F8C88148088800A69BFF3C6
:1009F0005F8F002010608CF310880A7801309040DF
:100A0000CA68084952181060180002B070BD01256C
:100A1000DCE7BFF35F8F00232B6084F31088013B7A
:100A2000F2E7C0463C20000010B543890A14934207
:100A30001ADD53009B184269DB00D3180469EFF3F9
:100A4000108C72B62268002AFCD0BFF35F8F5A88E0
:100A5000090494B2090C8A4208D00369BFF35F8F7E
:100A600000221A608CF31088002010BD094A22432E
:100A70005A80012302698371BFF35F8F00211160E7
:100A80008CF31088027804499340C2680120521800
:100A90001360EAE70080FFFF3C200000F0B5C64687
:100AA00000B504000D0084B0EFF30587002F5ED180
:100AB0003F4E3369002B00D178E0F36832789846D6
:100AC0001800039200F084F8039A131D42469B001D
:100AD0009B5822001B1A9C462B00121A8B419F42E6
:100AE00013DC10D020BF334A0020536AAB4206D338
:100AF000926AEB1AA24240415A1E9341184304B035
:100B000080BCB846F0BD9445ECD93369002B4DD07C
:100B100000F066F822002B00121A8B412F00002BE8
:100B200032DB00230193244B2200009330002B0082
:100B3000FFF71CFF002827DD1E4B5A6AAA4233D359
:100B40009B6AA3422ED33369002B2FD001003000C3
:100B5000FFF76AFF174A0020536ABB42CFD3926A5D
:100B60005B1B591E8B41A24240411843C7E7114A03
:100B70000020536A8B42C2D3926A5B1AA242404160
:100B80005A1E93411843BAE70A4A0020536ABB42EF
:100B9000B5D30020926A5B1BA24240415A1E93418A
:100BA0001843ACE7AA42CED120BFCCE7FFF7F8FC50
:100BB0001C020020004005407105001010B5024ADB
:100BC0000248FFF7FFFB10BDE0390010A40600202B
:100BD0000300416A0A00986A596A8A42FAD170474A
:100BE000034B596A0A00986A596A9142FAD17047D0
:100BF00000400540F0B5D6464F464646440098466C
:100C00002418314BA400C0B5E41891466368089AD3
:100C10008A46934200D26260061FF6B2012E2ED998
:100C2000C0238022294F85009B0179591201E318C6
:100C30001A6000291AD14B4622685B015340E0221A
:100C4000134080225201A2181360012E2FD9802355
:100C500080229B01E31812011A60089B63604346DF
:100C60007B51E0BCBA46B146A846F0BD786900F0B9
:100C70003DFA013043001B18033BFDD2DBE753462E
:100C8000012BCDD1C02303229B01E3181A60023A45
:100C9000A3681A42FCD04A46236852015A40E02316
:100CA000134080225201A218084F1360850050465D
:100CB0000323216841400B40136001228240A36856
:100CC0001A42FCD0C3E7C04600800040A8060020BE
:100CD00070B582B006000D0018000699140000F0EF
:100CE00005FA069A03001202009229002200300041
:100CF000FFF780FF02B070BD10B5802482B06400A1
:100D00000094FFF777FF02B010BDC046014B800092
:100D1000C0587047A8060020F8B51E00334B1700D6
:100D2000D218334B04000D009A4258D8314800F0D5
:100D3000DDF90100380000F0D9F902009823103ADB
:100D400007005B009A4244D8731E062B3BD8069BD3
:100D5000013B062B37D8069B36041A03236816433B
:100D6000002B1FDB244B2548E218531E9A41802399
:100D70005242120B9B011203D218214B1A60214BD5
:100D80001A60130001688B43FBD121221E4B2560A2
:100D9000E318A7601A602268002AFCDA0822E660DD
:100DA0001A60F8BD3F2322681340AB42DAD1A36832
:100DB0001B051B0D8342D5D1EE22E368D2021340FE
:100DC000B342CFD1EDE71C21104B114A114802F07C
:100DD00061FA1921104B0E4A0E4802F05BFA1121FC
:100DE0000E4B0B4A0B4802F055FAC04680E84BD335
:100DF00080F8A932001BB7000040FDBF08C00040CA
:100E000000E0004000F0004004300000B83A00105C
:100E10004C3D0010543A00109C3A0010043A001067
:100E20008023024A9B000B43D36270470080054039
:100E3000002310B50100988A1B8B984710BDC0464F
:100E4000162310B5010018885B88984710BDC0466E
:100E5000F8B54746CE4680B50F1E18D014239946E4
:100E6000043304000025012698464B461888434663
:100E700021681B88984701C4431E984101350640EC
:100E8000AF42F2D13000C0BCB946B046F8BD012631
:100E9000F8E7C046AA23064A1B0113608D235B00B6
:100EA000D3600449044B19605368002BFCDA704787
:100EB0000040024000B0FA00006002407047C046A7
:100EC00070B5074D074EB54209D20024013E761B8E
:100ED000B608013608CD01349847B442FAD170BD46
:100EE000A0370010DC370010054B064A06491A608F
:100EF000064A074B1A6010000B689843FBD17047F5
:100F000000E00040BFCDFBFE08C00040FE7F3C007B
:100F100000F00040044BDB6C002B03D18022034B1C
:100F2000D2021A607047C046000011504C20115088
:100F3000044A054B1A60054A1368DB018033FBD174
:100F40007047C046FFFFFF0100F0004008C00040AE
:100F50004022034B9A675A671A67DA667047C046A1
:100F600000F0014010B5FFF761FA10BD0C4B0D49C0
:100F700070B55D1AAC1022000B4E302C00D9302217
:100F80003000920000F08AFFBC2D05D8074A751981
:100F9000013404C5302CFBD1054B9E6070BDC046AA
:100FA000C00100100001001000000020C10100106D
:100FB00000ED00E0002310B5294C82B0A367FFF7D5
:100FC00069FF0122274B1A60636C012BFCD10322BD
:100FD000254B1A60224A936B012BFCD101330093FD
:100FE0000121224A22480433FFF796FE05230121FE
:100FF0000093204A2048FFF78FFE002202210420A0
:101000001E4BFFF779FE0022012105201C4BFFF744
:1010100073FE0022002107201A4BFFF76DFE00220D
:1010200000210820174BFFF767FE8023DB000093A9
:10103000002200210920134BFFF74AFE0022104B2B
:1010400000210620FFF758FE0420FFF75FFE0E493F
:1010500000F04CF801000020FFF7E2FE02B010BDE6
:10106000008000403CB0004030B00040002F685984
:1010700000800240008C864700C00240001BB70081
:1010800040597307006CDC0240420F000148042104
:10109000014B184740020020510E0010124A936F76
:1010A0009B0815D29066D166002905D0FFE7FFE7BF
:1010B000FFE7516F106F704704B580210906C21712
:1010C0005140002800D0C84302F05AFB002104BD63
:1010D000F0B5146E556E576F166FFFF7E3FF146689
:1010E000556657671667F0BD000000D0114A936F30
:1010F0009B0813D210665166002905D0FFE7FFE771
:10110000FFE7516F106F704704B5002801D0002031
:10111000C04302F035FB002104BDC046F0B5146E9B
:10112000556E576F166FFFF7E5FF146655665767E4
:101130001667F0BD000000D094464A4A926F9208AC
:10114000624601D228E0C046F0B5464E346E756E58
:10115000776F366F00F020F89446424A1466556661
:10116000576716676246F0BD94463E4A926F9208F2
:10117000624601D254E0C046F0B53A4E346E756E08
:10118000776F366F00F04CF89446364A1466556611
:10119000576716676246F0BD002B24DB11D000298B
:1011A0003EDA00B5C943404200D1013100F038F8C1
:1011B000C943404200D10131DB43524200D10133E7
:1011C00000BD002AEBD1002801D1002905D0002064
:1011D000C90FC90701D1C043410800B502F0C8FAE0
:1011E0000022002300BD00B500290ADBDB43524288
:1011F00000D1013300F014F8C943404200D101315D
:1012000000BDC943404200D10131DB43524200D10D
:10121000013300F005F8DB43524200D1013300BD39
:10122000002923D1002B18D1002A0CD0BC460D4F29
:1012300038667A6600210023FFE7FFE7FFE77A6F51
:10124000386F67467047002801D00748010000B595
:1012500002F08EFA0022002300BD02000B000020E5
:1012600000217047000000D0FFFFFFFF002B00D0DF
:10127000BFE0130C28D1002AE7D080B4114F3966A3
:101280007A66FFE7FFE730B4040C7B6F396F1B040D
:1012900023433B667A66FFE7FFE7FFE7C04684B279
:1012A0007B6F3D6F1B0423433B667A66FFE7FFE7D6
:1012B000C04600232C042D0C7A6F386F0019694149
:1012C000B0BC7047000000D0F0B594460025140E65
:1012D00001D112020835140F01D112010435940F07
:1012E00001D192000235D40F01D152000135D40B47
:1012F0000134254F7C66254C3C660E0C93B2FFE70B
:10130000FFE7FFE73C6F6643360C7703BE46734347
:10131000DF0B5B04C01AB941130C7343DB18C91A05
:10132000CE086643360CB64493B273431F0F1B01BD
:10133000C01AB941130C73431F0B1B05C01AB941E6
:10134000860D8F023E436643360C092D24DB520A7C
:101350007243801A7703460A6643360C16235B1BDA
:10136000DE40DF40BF1964466643821B7046043589
:1013700006330100D940A840C01900D30131A24270
:1013800006D20023F0BD0000000000D0FFFFFFFFE9
:10139000121B0130F3D3F1E709277F1BFE4064469F
:1013A000A2B27243801A00D20139220C7243130C8C
:1013B0001204821A99410B0070460435133701005C
:1013C000F940A840801900D30131002B02D1A2427C
:1013D0000AD2F0BD013000D30131121BFAD2013B19
:1013E000F8D1A24200D2F0BD013000D30131121B6E
:1013F000F7E7F0B51C0C00D080E00CB400251C0A07
:1014000004D11B02160E3343120208351C0B04D103
:101410001B01160F3343120104359C0B04D19B00B2
:10142000960F334392000235DC0B02D192185B41D8
:1014300001351C00971864410134464F7C66464CC8
:101440003C660E0CFFE7FFE7FFE7C0463C6F6643D4
:10145000360C7703BE4697B27743C01B00D20139E2
:10146000C01B00D201399FB27743C91BC91B170C9F
:1014700077437E04FF0B801BB941CE086643360CD0
:101480000C2D33DBB644120B1F053A431B0B97B2EE
:101490007743C01B00D201399FB27743C91B170C99
:1014A00077433E043F0C801BB941860D8F023E43BB
:1014B000664329277F1BFE400C3D7746AF40BF198E
:1014C00030BCA2B2ABB272437343801A9941220C72
:1014D0007243130C1204801A994102000B00013769
:1014E000001BA941F9D2781E0021F0BD0C277F1BFB
:1014F000FE4077467F0BAF40FF19E0E700245D1CFC
:1015000007D0144F7D663966FFE7FFE7FFE7FFE787
:101510003C6F95B29EB265436643401BB141150CCA
:101520001E0C6543664336042F0C3E432D04401BBE
:10153000B141994204D202000B0020000021F0BD0D
:1015400001D19042F7D3801A994101349942F2D3E4
:10155000F6E70000000000D0FFFFFFFF48404140D9
:10156000484018B41B4B5B68FC46019308BD04DF80
:101570003718001018B4174B1B68FC46019308BDC0
:1015800000DF411800109446134A926F920809D266
:10159000624618B40F4BDB68FC46019308BD0CDFB4
:1015A000F91A00100C4AF0B5146E556E576F166F8D
:1015B0006246FFF7EEFF084A1466556657671667DE
:1015C000F0BD18B4034B9B68FC46019308BD08DFCF
:1015D0009D190010F0030020000000D0FFB550401E
:1015E0004240504059404B40594000E0FFB5154F34
:1015F0004C00640D03D0BC4204D10C0314D800206D
:10160000090D09055C00640D03D0BC4204D11C0324
:101610000AD800221B0D1B0501264B4009D44B4064
:1016200003D58B4200D18242FFBD9942FCD190424A
:10163000FFBD0B43DB1803431343F5D0C9434918DF
:10164000FFBD0000FF07000000B5FFF7CFFF80419E
:1016500000BDC04600B5FFF7C9FF01D9002000BD9D
:10166000012000BD00B5FFF7B9FF01D9002000BD82
:10167000012000BD00B5FFF7B1FF804100BD012092
:1016800040054A00121804D85A00121801D8002048
:1016900070470120704700000021002805D17047E5
:1016A000C1174840401AFAD0C90713B5064B1B684A
:1016B00098470CBC441CA2401005120B0349091B9F
:1016C00009051943114310BDE80600201F0400005E
:1016D00010B54C00620D8023D218DB00D21A5B05D6
:1016E0007E2A10DD9E3A13DACC1709034908194304
:1016F0005242D140640001341532202A05DAD0402C
:101700000843604310BD002010BD0846604310BD73
:10171000C80FC018013810BD18B4044B5B6AFC46F2
:10172000019308BD24DFA91C00100000F003002075
:10173000132370B51C78012C1ED019DD2148FFF74A
:101740007FFB06002048FFF77BFB023803789B00F5
:101750007F2B31DD1D4D80223100280000F09EFBE3
:10176000022C13D01A48FFF763FB1A4B186070BDA8
:10177000194A164DAA64F5E7144D174A29002B00A3
:10178000803104C38B42FCD1AA64EBE7134B1A8867
:10179000B5231B029A420CD1114A124B12889A426D
:1017A00007D1114A114B12889A4202D10A4AAA64FF
:1017B000D8E70020FEF7EEFD33210D4B0D4A0E4811
:1017C00001F068FD5344000053460000F003002080
:1017D0004C330000E8060020FD17001054380000CC
:1017E000D8380000494600009C38000059460000E7
:1017F000043B0010583D0010483B001007B5604600
:10180000002800D100BE01880A0A0230DF2AFAD17E
:10181000C9B2820804D3028840880004104300E063
:101820000068024A5050039007BD0000F0030020FA
:101830000FB403BC0CBCF0B50124E407634000E026
:10184000F0B50C0DCF0F661E3605891B640503D35A
:10185000C943404200D30131640D03D0661CF60A2F
:1018600007D0E41B00207F00791C89078912803C87
:1018700024031D0DDF0F6E1E36059B1B6D0503D364
:10188000DB43524200D301336D0D03D06E1CF60AC8
:1018900007D0ED1B00227F007B1C9B079B12803D25
:1018A0002D032F1B661B58D4A446202E46DA203762
:1018B0001400BC401D00BD40F24033412A43801853
:1018C0005941CB0F05D0C943C04300226442504167
:1018D000514162464D0D28D10D0D07D100281FD072
:1018E000241940414941013A0D0DF9D0640006D355
:1018F000013000D30131002C01D140084000013AF1
:101900000BD4941CE40A04D112051144DB071944DA
:10191000F0BDD907204B194300E0D9070020F0BDE6
:101920000029DDD1002CDBD1F0BD0132C607400813
:10193000CD0728434908002EE1D0D9E73C2E29DA0B
:10194000203E40371400BC4000D00124F240144334
:101950001A00BB401C43D317ACE7AC46202F08DA73
:1019600020360400B4400D00B540F840394128430A
:10197000A5E73C2F0CDA203F40360400B44000D0ED
:101980000124F84004430800B1400C43C117EAE7C2
:1019900010001900002494E70000F07FF0B50C0D52
:1019A000661E3605891BE60A6405640D02D0651CB7
:1019B000ED0A04D0002001210905803C2403A4463F
:1019C0001C0D671E3F05DB1BE70A6405640D02D092
:1019D000651CED0A04D0002201231B05803C240372
:1019E0007740644497B484B296B27443070C7E4344
:1019F000150C6F4380B26843361802D301200004EF
:101A00003F183004350C00197D41844688B29AB2E3
:101A100050430C0C62431F0C7C438EB27E439219E0
:101A200002D301263604A4191604170C3618674190
:101A300001BC81B29AB25143040C62431B0C5C435B
:101A400080B25843121802D3012000042418100455
:101A5000130C401863412D185E410020474106BC1D
:101A600088B293B258430C0C6343120C544389B2AE
:101A700051435B1802D301210904641819041A0C9C
:101A8000091862416D1856410020474118BCF902FF
:101A9000720D1143F0026A0D1043ED020A0D03D1DD
:101AA0006D1940414941013B124E9B1B7600B342E8
:101AB0000ED26D0007D301300026714166463543D2
:101AC00001D1400840001B05C918E4072144F0BDBE
:101AD0000BDA013306D1013004D101314F0D01D0B1
:101AE0004908F2E7E1070020F0BD0136310500208A
:101AF000EBE70000FF030000F0B51C0D671E3F057B
:101B0000DB1BE70A6405640D02D0661CF60A04D0EC
:101B1000002201231B05803C2403D0252D0600262E
:101B2000F6432E661E096E66CE0FF619B4464900BE
:101B30004F0D02D07E1CF60A03D000200021403F4A
:101B40003F033E1BB600B444013F7F05C91B490853
:101B50002E6F013676089C02950D25437543ED13D3
:101B60007543AD1301356D10F603761B0CB4CC0232
:101B7000450D2C43A2B2B3B25A43270C7B43350C1C
:101B80006F43A4B26C431B1902D3012424043F19F0
:101B90001C041D0CA4187D4124196D41009A91B2BA
:101BA000ACB26143170C7C432B0C5F4392B25A4397
:101BB000A41802D301221204BF182204230C5218C5
:101BC0007B41019C6C431B19520ED9010A4344010D
:101BD000A01A81B2B2B2514303145A43360C734374
:101BE00087B27743D617D21900277E4136049B1956
:101BF0001704160C7F185E417316ED18F3010026CA
:101C000080337541A90F06D16400690AE8055B0AB3
:101C1000184309D22FE00422944480337541A90A65
:101C2000A8059B0A184326D3404149412404009A41
:101C3000019B0D005543641B4343E41A95B286B2E1
:101C40007543170C7E43030C5F4392B25A43B61898
:101C500002D301221204BF183204330C52197B4103
:101C600052429C41002C02D40022013051414008D4
:101C7000CA071043490802B06246D7079210084BC2
:101C8000D218084B9A4203D212058918C919F0BD1F
:101C90000020002A01DC3900F0BD01331905F5E709
:101CA000FD030000FE070000002200B5203200F016
:101CB00004F8080000BD000000220B150AD410B57E
:101CC000944600F031F81414013400DA0021CB17E7
:101CD000144C20470020002170476244343A0CD451
:101CE0000C2A07DA04009140904052422032D4403E
:101CF000214310BDD843D94310BD203207D40C4630
:101D00009440524220321141D040204310BD08007F
:101D1000C917203203D452422032104110BD18009E
:101D2000190010BDDB1C00100A0DCC0F531E1B0543
:101D3000C91A520503D3C943404200D30131520DA1
:101D400003D0531CDB0A07D0121B00206400611C67
:101D500089078912803A1203014BD21A704700009A
:101D6000FF030000132310B51C782848FFF768F81C
:101D7000012C10D009DD831E1B789B007F2B3EDDDC
:101D800001008022224800F089F82248FFF750F82D
:101D9000214B186010BD1E4C54220100200000F0A1
:101DA0007DF81E4A1E4B12889A4225D1A722920125
:101DB0001C4B12889A421FD11B4B1A881B4B9A420C
:101DC0001AD194231A4A9B0112889A4214D1194BB2
:101DD0001A88194B9A420FD1184A194B12689A4225
:101DE0000AD123002100174A5433803104C3994299
:101DF000FCD12262E261C8E71348FEF7CBFA422128
:101E0000124B134A134801F045FAC04653460000EE
:101E1000EC0600204C330000E8060020EE2900000C
:101E2000C40F0000C20D0000962B0000C0B50000DA
:101E3000182B0000CC2A000010B50000FC2C00007C
:101E400051ED8764591E0010943C0010A43B001013
:101E50006C3D0010D83B001007B56046002800D14B
:101E600000BE01880A0A0230DF2AFAD1C9B282080C
:101E700004D3028840880004104300E00068024A4E
:101E80005050039007BD0000EC06002001480421DB
:101E9000014B184750020020510E0010014B5B68A7
:101EA00018470000500200207047C046F8B5DE46D3
:101EB00057464E464546E0B599460D9B0700884675
:101EC00093469B0728D00B9B002B3CD016000B9C05
:101ED0000A9D3619321B013C4B464146285DB847E6
:101EE000002CF7D135000D9B9B070ED55B46EC1AF5
:101EF0000C9BA34209D91E002A004B4641462020D4
:101F00000134B8470135B442F6D32800F0BCBB46D3
:101F1000B246A946A046F8BD0B9B0C9A934214D238
:101F200013005D460C000B9A9E1A76192A004B4648
:101F3000013521002020B847B542F7D10B9BA046C0
:101F4000002BC4D1E1E71500CDE70B9B5E46002BCB
:101F5000BDD15D46D9E7C046F0B54F46D6464646A8
:101F6000C0B584B09C460EAB1F78129B9146BA4612
:101F70000D9C109E119D9B074DD4002D42D1B44263
:101F800049D20123129F1F40B8460C9B5F1E30238D
:101F900003E001343B55A64201D9202CF9D1434638
:101FA000002B00D189E00C9B5F1E3023A54204D892
:101FB00031E001343B55AC422DD0202CF9D1129B9D
:101FC000DB060ED5129B5B0558D4A64268D0A5420D
:101FD00066D00F9B102B54D00F9B022B5BD0202C74
:101FE00036D12023129C01930C9B4A460093039404
:101FF00063460295FFF75AFF04B0E0BCBA46B1460B
:10200000A846F0BD0123129A1340984601231342BB
:102010002DD1B442B9D3129BDB061ED5129B5B05B2
:10202000D7D4002CD1D10F9B102B62D00F9B022B49
:1020300073D0302301240C9A13705346002B11D116
:10204000129B5B0741D52B260C9A631C1655C9E7DA
:102050002300013430260C9AD654202CC1D053468C
:10206000002BEDD02D260C9A631C1655BAE7002FD5
:1020700035D0013DB44200D287E794E70F9B102B87
:10208000AFD1129B9B063ED5202CAAD058230C9A88
:1020900013550134A3E7202CA3D02300013408E01A
:1020A000631E012CBFD00F9A102A38D00F9A022A33
:1020B000D0D162260C9AD65491E7129BDB06CCD580
:1020C000129B5B0500D480E783E7129A2300160772
:1020D00000D487E720260C9A0133165582E70C239B
:1020E000129A13405F1EBB41ED1AB44200D24CE776
:1020F00059E7129B9B060ED478230C9A0224137086
:102100003023537099E7202C00D16AE778230C9A8A
:102110001355013463E75823EFE76033EDE70C9A7A
:10212000A61EB618129A920602D55822327091E76E
:10213000782232708EE7C046F0B55746DE464E46EE
:102140004546E0B593B08B461CA980C98246097804
:102150001E9D8946002F07D110202199002481431C
:102160002198219140051FD421996126890632D4F6
:102170001F2102A80918002488460A3E08920993E4
:1021800002E00700202C0DD029003800FEF7AEFF3A
:102190008B19092901D80B003033424601341355FD
:1021A000AF42EED2089A099B219950460691209998
:1021B000039505911F9901940491494602910AA93A
:1021C00000915946FFF7C8FE13B0F0BCBB46B246BB
:1021D000A946A046F0BD4126CAE7C046F0B545462F
:1021E000DE4657464E46E0B597B00A92209A219DAA
:1021F000924622AA12789346249A9046259A0992EA
:1022000052462A4306D11024289AA243289C289299
:10221000640545D4289A612792063FD41F2206AE52
:1022200092190A3F91463A0000245746099E924669
:102230000B900C910D9305E0AE4233D007000D00DA
:10224000202C11D04246330038002900FEF78CFFC5
:102250005346D2B2D318092A01D8130030334A4664
:1022600001341355AE42E7D90B980C990D9B289A6F
:1022700001940692279A0592269A04924246039266
:102280005A4602920EAA00920A9AFFF765FE17B00C
:10229000F0BCBB46B246A946A046F0BD4127BDE70B
:1022A0000024E4E7B845C9D9DEE7C046F0B54546A5
:1022B000DE4657464E46E0B593B01C9C1D9D8146B8
:1022C0008A469346984622002B0020002900FFF7FB
:1022D000D6F900284BD1012220002900D74B5242C9
:1022E000FFF7C8F9002842D1012220002900D44B71
:1022F0005242FFF7A9F9002839D10022002320001B
:102300002900FFF7A1F9002800D0DAE1069407952B
:10231000069807998023209ADB001A400F928022AA
:102320002099120111400A000B9120990600079F85
:10233000194231D1069807990B00034354D1002A62
:1023400000D0D7E106331E930223209A134008934E
:102350000223134200D0CFE11F9B042B00D214E2D2
:10236000043B0B9304230C9300230E930EE1209B5C
:102370000094019504931F9B03931E9B0293434675
:102380005A465146484600F027FA13B0F0BCBB4607
:10239000B246A946A046F0BD0699079A13000B4322
:1023A00024D10B9B002BCFD000230E931E9B0E9AA3
:1023B0000026934200DDFDE10022002320002900D9
:1023C000FFF742F9002800D081E1209B9D4A029648
:1023D0001A408023DB00134304931F9B0393069B47
:1023E000079C00930194CAE706231E93964A78003F
:1023F000400D8018FFF754F9944A954BFFF7E1F828
:10240000944A954BFFF7B6F83B03944A1B0B1A43CB
:1024100008900991924B300011000022FFF7A1F8BB
:10242000904A914BFFF7CDF802000B0008980999EC
:10243000FFF7A0F8FFF74CF907000E90FFF730F90F
:102440008A4A8B4B08900991FFF7BBF80022894B11
:10245000FFF790F8FFF73CF9874A060008980999BA
:10246000864BFFF7AEF8089009913000FFF718F996
:10247000834A844BFFF7A5F802000B0008980999DE
:10248000FFF76FF802000B0008900991FFF799F829
:102490000C900D910898099902000B00FFF76AF85B
:1024A0000022109011910C980D99774BFFF76BF863
:1024B0000022764BFFF75EF802000B000C980D9996
:1024C000FFF761F80022724BFFF754F802000B008F
:1024D0000C980D99FFF757F8089A099B0C900D91ED
:1024E00080210020C905FFF73CF802000B000C9882
:1024F0000D99FFF73FF802000B0010981199FFF7B4
:1025000042F80022554BFFF735F8624AB3181B0515
:102510000022FFF756F8069A079B08900991FFF7EB
:10252000A9F8002809D0089809997B1E0E9300226B
:10253000564BFFF728F808900991089A099B1F004D
:102540000E9B16006333C62B00D9A5E00223209A08
:102550001A40130008920B9A002A00D012E10432AC
:102560000C921F9A042A06D9002B00D125E10423DE
:102570000C93023B08930E9B002B07D006980799FB
:1025800032003B00FEF7FFFF069007910022002378
:1025900020002900FFF758F82A4B209A1340049393
:1025A0000B9B03931E9B0293002800D0EFE0069B39
:1025B000079C00930194514643465A46484600F012
:1025C0000BF902002020209B4746034059424B4113
:1025D0005B42184051463B004530541CC847052318
:1025E0000C9A0593531E04930E9A00231000039334
:1025F0000A330293D30FD2170193831853400093E9
:1026000022003B0051464846FFF796FD089B002BF1
:1026100000D1BAE65B46C71A1F9BBB4200D8B4E69E
:1026200004002200434651462020C8471F9B013723
:102630000134BB42F5D82000A7E6C046FFFFEF7F7C
:10264000FFFFEFFFFFF7FFFF01FCFFFFFB799F504C
:102650001344D33FB3C8608B288AC63F0000F03FC5
:102660000000F83F61436F63A787D23F71A37909E8
:102670004F930A400000E03F1655B5BBB16B0240D6
:10268000EF39FAFE422EE63F00002C4000002440C5
:1026900000001840FF0300000223209A1A40130094
:1026A00008920B9A002A30D105320C921F9A052A03
:1026B00000D863E7002B77D00223089303330C93F1
:1026C0005CE780231B06EB180694079320E6209B0B
:1026D0003D4A8021069C079D1A408023DB0013435E
:1026E000220004931F9B090603936B180092019329
:1026F000029644E605265FE600230B9304330C9311
:1027000000230E930233089340E705230C93310016
:10271000394300D14AE6069807992C4A2C4BFEF71C
:10272000A1FF002808D0069807990022294BFEF740
:102730008BFF002800D039E61E9B002B14D00F9B86
:10274000002B11D01E9B1F9A013B1E9300230B935D
:102750000C9B9A4200D80EE7089A002A20D0022348
:10276000089300230B9306E70B931F9A0C9B9A4246
:1027700000D800E7089A002A12D000230B930233F6
:102780000893F8E604230C93C1E70423E8E58021CD
:10279000069C079D220009066B18009201930AE728
:1027A0001F9AD31A0B93E6E61F9B053B0B93052359
:1027B0000C93E3E69B1A5E1EFEE51F9B043B0B9306
:1027C00004230C93D7E6C046FFF7FFFF2D431CEB15
:1027D000E2361A3F80842E41F0B54E46DE4657461B
:1027E0004546E0B595B08046894692469B461E9A7E
:1027F0001F9B10001900209EFEF741FF002800D00B
:1028000087E11E981F990122C64B5242FEF71CFF1A
:10281000002800D0FEE01E981F990122C24B5242B0
:10282000FEF728FF002800D0D4E01E981F99002250
:10283000BE4BFEF71FFF002800D0B5E01E981F9981
:102840000022BB4BFEF700FF002800D0ACE01E9832
:102850001F9900220023FEF7F7FE002800D0CEE0EB
:1028600000230B93229B5B0500D406260024302313
:1028700006E006AA013417321355013E202C01D080
:10288000092EF6D81E981F99FEF722FFA94BF200D9
:102890009B180CCB050008920993FEF701FF02007C
:1028A0000B001E981F99FEF75CFE089A099BFEF725
:1028B00088FE06900791FEF72FFF0700FEF7ECFE5B
:1028C00002000B0006980799FEF74BFE00229A4B78
:1028D00006900791FEF7CEFE002800D1C3E0013735
:1028E0003800FEF7D9FE02000B0008980999FEF7A0
:1028F000B1FE002801D000270135002E00D191E063
:10290000069513E0172306AA9B180A213800013404
:102910001D19FEF7EBFB3031297038000A21013E0A
:10292000FEF7E4FB092F00D8BAE00700202CE9D11C
:10293000069D20240CAB0693172706ABFF180DE06D
:1029400028000A21FEF7AAFB01343031280039554E
:102950000A21FEF7A3FB051E00D191E0202CEFD148
:102960000323229A1340012B17D1219B002B14D053
:102970000B9B002B00D1A9E0219B013B2193202B35
:102980000BD9302307E006AA173201341355219AD8
:10299000944200D379E0202CF5D1229B019403933B
:1029A000219B0293069B1FE0229B52460493219B8E
:1029B0004946039340461E9B1F9C02960093019438
:1029C0005B46FFF773FC15B0F0BCBB46B246A946A8
:1029D000A046F0BD229B5B070ED40322574B2299E1
:1029E0000192039121990291009352465B46494618
:1029F0004046FFF75BFAE6E70422514BEFE71E9AE9
:102A00001F9B00200021FEF7ACFD01231E901F91AB
:102A10000B9327E7229B0393219B029304230193AB
:102A2000484BE1E72800FEF73BFE02000B001E9832
:102A30001F99FEF796FD404B002206000F00FEF79F
:102A400003FE0CAB0693002800D075E7002230008F
:102A50003900394BFEF70EFE002800D06CE7012349
:102A600001359D4368E7002206980799324BFEF72F
:102A7000EBFD002800D040E7002F45D101373CE7AF
:102A80000323229A1340012B65D0202C00D184E728
:102A90000B9B002B27D02D23069A135501347CE77E
:102AA000069D202C00D144E73023361906E006AA03
:102AB000013417321355202C00D13AE7B442F6D135
:102AC0002E230CAA01340692935535E70C23229A43
:102AD00013423BD0219B013B21939C4200D250E703
:102AE000202C00D159E7229B5B0704D52B23069AA3
:102AF0001355013451E7229B1B0700D44DE72023D7
:102B0000069A1355013448E7FB0700D4F5E6013770
:102B1000F3E6229B0393219B0293032301930A4B29
:102B200062E7C046FFFFEFFFFFFFEF7F65CDCD41BE
:102B300065CDCDC1703F00100000E03F783C001033
:102B4000703C0010803C00107C3C0010219B9C429B
:102B500000D216E721E7219B002B96D00B9B002B80
:102B6000B4D0219B013B21939C4200D209E7202C49
:102B700091D112E710B5002803D04A680B68110004
:102B8000984710BDF0B557464E46DE464546E0B57F
:102B90008246894617001C0097B0002900D1B0E199
:102BA000209B207800250B93002800D1B2E1BF4B79
:102BB000B8469B46BE4B57460D93CA4607E02A00CF
:102BC00043465146B84701352078002876D0013475
:102BD0002528F4D104239946023B00269C46207800
:102BE000611C0300203BDBB2102B03D85A469B002C
:102BF000D3589F460300303B092B38D90023994610
:102C00002A2800D19DE000230C932E2844D00200F6
:102C1000683AD2B2122A1CD80D9B92009A58974655
:102C200001230C001E43DAE763460C001E43D6E77F
:102C30004B460C001E43D2E710230C001E43CEE788
:102C400008230C001E43CAE7802260785200164316
:102C500001310C00672845D82428B0D90200253A54
:102C6000D2B2422AABD8934992008A5897460023A1
:102C70001A0000E0013193009B185B001A180878D5
:102C80000C000300303B303A092BF3D90023914666
:102C900001310C932E28BAD18020303B9C46C000D5
:102CA000064360780A0084446346092B00D833E168
:102CB0002A2800D14AE10C000131A8E7D1462C00B6
:102CC000BA464746AF4200D87D1E3B002A0049461F
:102CD0000020D047200017B0F0BCBB46B246A94642
:102CE000A046F0BD0200693AD2B20F2A00D966E7C9
:102CF0000121714B91409C460B400E936346194253
:102D000000D019E10A2A26D0072A00D057E721224D
:102D10003243059208220B9B04921A000C9B5146E9
:102D20000393102302930E9B3800019308CA914627
:102D300000932A004346FFF7FFF94B4605000B932B
:102D400042E70B9B04CB002A52DB607891460C00D3
:102D50000B93013157E70B9B0C9904CB94461093CE
:102D6000002900D1FDE063461878624661440028DE
:102D700005D14EE253780132002B00D158E1914247
:102D8000F8D16346CB1A0F9380223300D200134050
:102D90000B93164204D00F9A0C9B9A4200D90F93C2
:102DA000B60700D47EE102230E9363462A005D1B22
:102DB0004B46A14611932C000C9D00E032000B9B6A
:102DC000002B03D0002D00D145E1013D561C4346A8
:102DD0005146B847A05D0028F0D1119B4C4699465A
:102DE0000E9B002B00D080E1109B35000B93EBE68F
:102DF000283852420643914660780B930C0001310B
:102E000001E760786C2800D116E180225200164359
:102E100001311EE78022920060781643013118E7E5
:102E20006078682800D10DE180220131164310E757
:102E3000672800D19AE0472800D1F3E0452800D167
:102E4000F3E007210B9A0496D31D4A468B431900E1
:102E500003920C9A380002920CC9009201930B91D4
:102E60002A0043465146FFF721FA0500ACE6462802
:102E700079D007210B9A0496D31D4A468B4319003B
:102E800003920C9A380002920CC9009201930B91A4
:102E90002A0043465146FFF79FFC050094E62A00AE
:102EA000434651462520B84701358DE6D43D0010F4
:102EB000183E0010643E0010419000006B1C0E9301
:102EC0000B9B04330C93B60700D4C9E00B9B2A007C
:102ED000187851464346B8474B464D44012B00D81D
:102EE0005BE1A14654460E9E320043460136210066
:102EF0002020B847B542F7D1A2464C460C9B0B9315
:102F000062E6D44B20789A46209B00250B9300283C
:102F100000D04CE60024D5E600218B005B185B0056
:102F200001321918107830390300303B092BF4D9DD
:102F30000C911400511C6AE66F281BD000D84DE19B
:102F40001021782817D08E43063914E00B9AA07808
:102F500008CA0234D943C9170B400C930B92611C69
:102F600055E60139FFE62022164382E7802212014E
:102F7000164366E70821720500D4CBE00D22964384
:102F8000320080201300800003409C46024200D0A3
:102F900005E10B9B1E1DD00500D529E10B9B5006BA
:102FA00000D5F2E0100600D43FE118884B460493A8
:102FB0000C9B0592039300230291019300902A0039
:102FC000434651463800FFF7B7F80B960500FBE57E
:102FD00058283CD002216228CDD0720500D4D0E020
:102FE000112296433200910500D597E00B9B1E1DE0
:102FF000D10500D5E3E00B9B510600D5BEE01106DC
:1030000000D401E10021595ECB17C818584080B2A6
:103010004B4604930C9BC90F03930A23059202931A
:103020000191CBE78022120116432022164308E7C4
:103030006346D31A0F93A7E6C0229200A0781643E6
:10304000E11C06E6C022A0781643E11C01E620221E
:10305000102116438FE7119B4C4616009946BFE698
:103060004B46012B00D892E06B1E4B444A462E0083
:10307000A9465546A2461C000E930F9232004346C5
:10308000013629002020B847B442F7D15446AA4659
:103090004D460F9B5146ED180B9B0E9A18784346F0
:1030A000B8472BE70F9B994500D8D5E04B465E19F2
:1030B0000F9BF61A63460F935346A2461C002A0044
:1030C0004346013521002020B847AE42F7D10F9B7F
:1030D0009C46230054469A4663461878002800D13F
:1030E00082E64B4601330F935FE635000F9B99450F
:1030F00000D8ACE04A46A14654465619F61A2A00B2
:103100004346013521002020B847B542F7D1A246F9
:103110004C4669E60C229643320032E7082307202A
:103120009C460B99073181438C44634603C90B933A
:103130004B4607930C9B089206930A2200230492A5
:103140000593CB0F0293CB1712931393129A139BF1
:10315000160046401800484014961590149815998A
:10316000801A994102000B000092019351462A00F7
:1031700043463800FFF732F8050025E519780800C6
:1031800046E71022964332002DE718780EE70B9B96
:103190002A00187851464346B8470E9DAEE64B4686
:1031A00007930C9B0726069300230B980892073081
:1031B000B0430491059302930CC80B90D4E71968AF
:1031C0004B4604930C9B059203930A230293CB0F67
:1031D0000193CB17C91859400091F0E61022330033
:1031E00093431A00692822D1710500D4FBE6F7E663
:1031F0004B4604930C9B05920393634601930B9BF0
:1032000002911B680093DAE61968CB17C81858407A
:10321000FEE680223300D20013400F93164209D0FD
:10322000B6071ED500230F9360E71868BEE61E00A0
:103230000A21A0E60222130033400B93324200D051
:1032400054E700230F934B46002B00D02EE72E00AF
:10325000CAE5C046A91E001001330F9300230E9348
:10326000A3E50B92EDE7C04600B585B003910121BF
:1032700002900093034813004A4202A9FFF782FC20
:1032800005B000BD752B001000BEFDE710B5FFF7BF
:10329000FBFFC04610B584460C0082B01900002A1E
:1032A0000AD0074B0192009362462300054800F0C4
:1032B000A3F90120FFF7E8FF034B1A00F2E7C0462D
:1032C000883C0010983C0010943C001070B5EFF35F
:1032D0000583002B00D000BEFDF7F2FD074D084E20
:1032E000B54209D20024013E761BB608013608CD4E
:1032F00001349847B442FAD170BDC046DC370010A3
:10330000E4370010030010B5080011001B6898474F
:1033100010BDC046F8B557464E464546DE46E0B5B8
:10332000437D80460F001600002B48D00023002468
:103330009946002A2ADD244B9B464B1E9A4604E000
:103340007B5D0A2B28D0A64212D025000134002D27
:10335000F6D13B780A2BF6D143461B7D002BF2D1E8
:103360004346022158461B68A1469847A642ECD125
:103370004B464E4504DDF11AF81843461B68984742
:103380007B5D0D3B5A42534142461375F0BCBB4630
:10339000B246A946A046F8BD53465B5D0D2BD2D080
:1033A0004B46AB42DCDAE91AF81843461B689847EB
:1033B0004346022158461B68A1469847D6E7036852
:1033C000110038009847E1E7C03F0010F0B5C6464D
:1033D0000B6807000D0000B5802B06D05A1C2A6030
:1033E000ED182F7180BCB846F0BD0F4B1C68002C47
:1033F00016D00B1D98460D4E02E02469002C0FD00C
:103400002368002BF9D03368002B01D0A342F4D1FC
:10341000200041462A68FFF77DFF2469002CEFD188
:1034200001220023DBE7C046D0060020D40600209E
:10343000F0B5DE4657464E464546E0B583B0170028
:103440001C0081460D00FDF7CBFB0023254A121816
:103450004B41002B02DA0122234B52422349080040
:103460008B4600F095F982466B1C03D1484600F06C
:10347000EFF80500002C2ED01D4E1E4B1C68002CB2
:103480001ED01D4B984602E02469002C18D02368FA
:10349000002BF9D043461B68002B01D0A342F3D187
:1034A0002A0049462000B047002FEDD06B460A2283
:1034B0002000DA71D91D093AB0472469002CE6D101
:1034C0005346002B09D1280003B0F0BCBB46B246DE
:1034D000A946A046F0BD094ECFE7584600F040F996
:1034E000F1E7C04640420F00FFFFFF7F640200206B
:1034F00015330010D0060020D4060020053300103C
:1035000070B5040000F0A4F80123010005000122B9
:103510002000FFF78DFF064B1C68002C06D0636867
:10352000002B00D098472469002CF8D1280070BDEA
:10353000D0060020F0B5CE46474680B5A3B00400C3
:103540000E00FDF74DFB0023254A12184B41002BBE
:1035500002DA0122234B5242234800F019F90023DA
:103560002200019380463300204801A9FFF77CFE2A
:103570001F4F019B81463C68002B19D0002C2DD099
:103580001C4E02E02469002C0FD02368002BF9D0D8
:103590003368002B01D09C42F4D12000019A02A98B
:1035A000FFF7B8FE2469002CEFD100233C6801939B
:1035B000002C06D06368002B00D098472469002CAB
:1035C000F8D14346002B05D1484623B0C0BCB946CC
:1035D000B046F0BD044800F0C3F8F5E70194F0E709
:1035E00040420F00FFFFFF7F64020020CD33001038
:1035F000D0060020D40600200FB400B583B004A983
:1036000001C90191FFF796FF03B008BC04B0184749
:1036100010B5010000230022002000F049F810BD81
:1036200070B5074C074D641BA41005D0013CA300E6
:10363000EB589847002CF9D100F090F870BDC046C7
:10364000E4370010E43700107047C0467047C046AA
:10365000030084469B070BD00300032102E00133E3
:103660000B4206D01A78002AF9D16246981A7047A0
:10367000030019680C4A0D488A188A4302420FD188
:103680005968094A04338A188A43024208D15968A2
:10369000054A04338A188A430242F1D000E001331C
:1036A0001A78002AFBD1E0E7FFFEFEFE80808080D2
:1036B000F8B5CE464746204C050080B52068160078
:1036C00099468846FFF7C0FF1C4B1A68002A2BD08A
:1036D000536820681F2B2ADC002D0CD1591C516027
:1036E000414602339B009950FFF7B0FF0020C0BC59
:1036F000B946B046F8BD8824990051180E511600FD
:10370000873C9C408936FF363768274337608426DC
:103710004F4676008F51022DE0D115008D35FF35D3
:10372000296821432960D9E7054A1A60D0E7FFF7E5
:103730008DFF01204042DAE7600200200C050020E6
:1037400010050020034B10B5002B02D00248FFF7F4
:103750005FFF10BD0000000021360010F8B5C04624
:1037600001B40248844601BC604700BFA9010020A3
:1037700001B40248844601BC604700BFF10100204B
:1037800001B40248844601BC604700BFF10100203B
:1037900001B40248844601BC604700BF45010020D7
:1037A000E90E0010150F00108D1000108D1E001076
:1037B00031170010651D0010B50F0010310F0010FB
:1037C000510F0010650F0010050500106D0F00105F
:1037D000D1080010BD0E001049040010453700103C
:0437E000FD020010D6
:1037E8000A2A2A2A2050414E4943202A2A2A0A0016
:1037F8000A00000030783163203D3D20282A696E98
:103808007374293E3E313175000000002F686F6DDA
:10381800652F6D696E696C61792F576F726B737064
:103828006163652F7069636F2F7069636F2D7364AF
:103838006B2F7372632F7270325F636F6D6D6F6E73
:103848002F68617264776172655F6972712F69723E
:10385800712E630063757272656E74203D3D205F42
:103868005F756E68616E646C65645F757365725FC1
:10387800697271207C7C2063757272656E74203D5C
:103888003D2068616E646C657200000031203D3D2A
:10389800202875696E747074725F74296C2D3E737C
:1038A80070696E5F6C6F636B000000002F686F6D4E
:1038B800652F6D696E696C61792F576F726B7370C4
:1038C8006163652F7069636F2F7069636F2D73640F
:1038D8006B2F7372632F636F6D6D6F6E2F706963DB
:1038E8006F5F73796E632F6D757465782E63000052
:1038F800746F74616C0000006D74782D3E636F7294
:10390800652E7370696E5F6C6F636B006C6F636BB1
:103918005F69735F6F776E65725F69645F76616C0C
:103928006964286D74782D3E6F776E657229000082
:103938006D74782D3E656E7465725F636F756E7415
:103948000000000064656661756C745F616C61728B
:103958006D5F706F6F6C5F696E697469616C697AAD
:1039680065642829000000002F686F6D652F6D6958
:103978006E696C61792F576F726B73706163652F15
:103988007069636F2F7069636F2D73646B2F737227
:10399800632F636F6D6D6F6E2F7069636F5F7469EE
:1039A8006D652F74696D652E63000000706F6F6C14
:1039B8002D3E74696D65725F616C61726D5F6E75C5
:1039C8006D203D3D2074696D65725F616C61726D3B
:1039D8005F6E756D00000000486172647761726502
:1039E80020616C61726D20256420616C7265616470
:1039F8007920636C61696D656400000076636F5FB0
:103A080066726571203E3D205049434F5F504C4CD3
:103A18005F56434F5F4D494E5F465245515F485A86
:103A28002026262076636F5F66726571203C3D20F4
:103A38005049434F5F504C4C5F56434F5F4D415880
:103A48005F465245515F485A000000002F686F6D6D
:103A5800652F6D696E696C61792F576F726B737022
:103A68006163652F7069636F2F7069636F2D73646D
:103A78006B2F7372632F7270325F636F6D6D6F6E31
:103A88002F68617264776172655F706C6C2F706CFF
:103A98006C2E63006662646976203E3D20313620D4
:103AA8002626206662646976203C3D203332300049
:103AB80028706F73745F64697631203E3D20312031
:103AC800262620706F73745F64697631203C3D2030
:103AD80037292026262028706F73745F6469763230
:103AE800203E3D203120262620706F73745F646964
:103AF8007632203C3D203729000000002A2828750E
:103B0800696E74385F74202A29282828766F6964BA
:103B1800202A29726F6D5F7461626C655F666C6FD5
:103B28006174292D322929202A2034203E3D205332
:103B3800465F5441424C455F56325F53495A4500EF
:103B48002F686F6D652F6D696E696C61792F576F7E
:103B5800726B73706163652F7069636F2F7069632F
:103B68006F2D73646B2F7372632F7270325F636F84
:103B78006D6D6F6E2F7069636F5F646F75626C65D2
:103B88002F646F75626C655F696E69745F726F6DC3
:103B98005F7270323034302E630000002A28287596
:103BA800696E74385F74202A29726F6D5F74616260
:103BB8006C652D3229202A2034203E3D2053465F53
:103BC8005441424C455F56325F53495A4500000004
:103BD8002F686F6D652F6D696E696C61792F576FEE
:103BE800726B73706163652F7069636F2F7069639F
:103BF8006F2D73646B2F7372632F7270325F636FF4
:103C08006D6D6F6E2F7069636F5F666C6F61742F77
:103C1800666C6F61745F696E69745F726F6D5F72F5
:103C280070323034302E63004465627567000000DE
:103C3800626F6F74325F7732357130383000000050
:103C4800322E322E300000007069636F00000000D1
:103C5800626C696E6B5F6261726500004D61722013
:103C68003231203230323600666E692B0000000097
:103C7800666E69006E616E00666E692D0000000058
:103C88002C2066756E6374696F6E3A200000000020
:103C9800617373657274696F6E20222573222066C2
:103CA80061696C65643A2066696C65202225732217
:103CB8002C206C696E65202564257325730A000025
:103CC8006972715F7365745F6578636C7573697623
:103CD800655F68616E646C65720000006D7574657F
:103CE800785F6578697400006D757465785F656ED6
:103CF8007465725F626C6F636B5F756E74696C007C
:103D080072756E74696D655F696E69745F6D7574DF
:103D180065780000616C61726D5F706F6F6C5F67D2
:103D280065745F64656661756C740000616C6172CE
:103D38006D5F706F6F6C5F6972715F68616E646CE4
:103D480065720000706C6C5F696E69740000000039
:103D58005F5F61656162695F646F75626C655F6909
:103D68006E6974005F5F61656162695F666C6F614F
:103D7800745F696E6974000006005250D3F0754292
:103D8800303C001006005250E182887F383C001019
:103D980006005250ABB36053483C00100600525026
:103DA800BBFF3CB6503C001006005250861C030274
:103DB800583C0010060052505422A29D643C00104A
:103DC80005005250DE65F4688C410010402C00104C
:103DD800F42B0010F42B0010382C0010F42B0010DA
:103DE800F42B0010F42B0010F42B0010F42B00100F
:103DF800F42B0010F42B0010302C0010F42B0010C2
:103E0800282C0010F42B0010F42B0010202C00108C
:103E1800202E0010522C0010142E0010522C0010CE
:103E2800022E0010522C0010522C0010522C0010A0
:103E3800522C0010522C0010522C0010522C001042
:103E4800482C0010522C0010522C0010522C00103C
:103E5800522C0010522C0010482C00109E2E0010DE
:103E6800BE2B0010BE2B0010BE2B0010BE2B001066
:103E7800BE2B0010BE2B0010BE2B0010BE2B001056
:103E8800BE2B0010BE2B0010BE2B0010BE2B001046
:103E9800BE2B0010BE2B0010BE2B0010BE2B001036
:103EA800BE2B0010BE2B0010BE2B0010BE2B001026
:103EB800BE2B0010BE2B0010BE2B0010BE2B001016
:103EC800BE2B0010BE2B0010BE2B0010BE2B001006
:103ED800BE2B0010BE2B0010BE2B0010302E001081
:103EE8006E2E0010302E0010BE2B0010BE2B0010BE
:103EF800BE2B0010BE2B0010BE2B0010BE2B0010D6
:103F0800BE2B0010BE2B0010BE2B0010BE2B0010C5
:103F1800BE2B0010BE2B0010BE2B0010BE2B0010B5
:103F2800BE2B0010BE2B0010D02F0010BE2B00108F
:103F3800BE2B0010BE2B0010BE2B0010BE2B001095
:103F4800BE2B0010BE2B0010BE2B0010BE2B001085
:103F5800D02F0010BC2E0010D02F0010302E0010D3
:103F68006E2E0010302E0010000000000000F03F00
:103F7800000000000000244000000000000059403C
:103F88000000000000408F40000000000088C3408F
:103F980000000000006AF8400000000080842E4104
:103FA80000000000D01263410000000084D7974150
:0C3FB8000000000065CDCD410D0A0000A6
:103FC400803D00108C3D0010983D0010A43D001071
:0C3FD400B03D0010BC3D0010C83D0010C6
:103FE000F0B5C6461600026804001F0000B5002A9E
:103FF0002BD0D0231B061B68002598460BE0BFF38F
:104000005F8F156081F310883000390000F084F86C
:10401000002818D12268EFF3108172B61368002BC4
:10402000FCD0BFF35F8F237922687F2BE7D943460B
:104030002371BFF35F8F0023136081F31088012089
:1040400080BCB846F0BD0020FAE7A621024B034A27
:10405000034800F069F8C04600390010F03C001039
:10406000B438001070B514001D000268EFF3108C16
:1040700072B61368002BFCD0BFF35F8F042141564A
:104080000368002914DBBFF35F8F00221A608CF3F2
:104090001088D02300221B069A5600238A4201D1A1
:1040A000180070BD2B002200FFF79AFF0300F7E70E
:1040B000D022120612680271BFF35F8F00221A60CD
:1040C0008CF310880123EBE710B50268EFF3108141
:1040D00072B61368002BFCD0BFF35F8F03797F2B80
:1040E0000AD8FF2303710368BFF35F8F00221A60B1
:1040F00081F3108840BF10BDD521024B024A03480E
:1041000000F012F814390010E43C0010B43800102C
:104110007047C0460000000001B40248844601BC5C
:10412000604700BF9D0A001001B40248844601BCEC
:10413000604700BF95320010100000000000000032
:10414000000000000000000000000000000000006F
:1041500070020020000000000000000000000000CD
:10416000503300004C330000543300005233000041
:104170004D5300004D430000533400004334000011
:0C418000A006002000000000000000006D
:04000005100001E9FD
:00000001FF
